{
  "contractName": "CreatorRoyalty",
  "abi": [
    {
      "inputs": [],
      "stateMutability": "nonpayable",
      "type": "constructor"
    },
    {
      "anonymous": false,
      "inputs": [
        {
          "indexed": true,
          "internalType": "address",
          "name": "owner",
          "type": "address"
        },
        {
          "indexed": true,
          "internalType": "address",
          "name": "approved",
          "type": "address"
        },
        {
          "indexed": true,
          "internalType": "uint256",
          "name": "tokenId",
          "type": "uint256"
        }
      ],
      "name": "Approval",
      "type": "event"
    },
    {
      "anonymous": false,
      "inputs": [
        {
          "indexed": true,
          "internalType": "address",
          "name": "owner",
          "type": "address"
        },
        {
          "indexed": true,
          "internalType": "address",
          "name": "operator",
          "type": "address"
        },
        {
          "indexed": false,
          "internalType": "bool",
          "name": "approved",
          "type": "bool"
        }
      ],
      "name": "ApprovalForAll",
      "type": "event"
    },
    {
      "anonymous": false,
      "inputs": [
        {
          "indexed": true,
          "internalType": "address",
          "name": "previousOwner",
          "type": "address"
        },
        {
          "indexed": true,
          "internalType": "address",
          "name": "newOwner",
          "type": "address"
        }
      ],
      "name": "OwnershipTransferred",
      "type": "event"
    },
    {
      "anonymous": false,
      "inputs": [
        {
          "indexed": true,
          "internalType": "address",
          "name": "from",
          "type": "address"
        },
        {
          "indexed": true,
          "internalType": "address",
          "name": "to",
          "type": "address"
        },
        {
          "indexed": true,
          "internalType": "uint256",
          "name": "tokenId",
          "type": "uint256"
        }
      ],
      "name": "Transfer",
      "type": "event"
    },
    {
      "inputs": [
        {
          "internalType": "address",
          "name": "to",
          "type": "address"
        },
        {
          "internalType": "uint256",
          "name": "tokenId",
          "type": "uint256"
        }
      ],
      "name": "approve",
      "outputs": [],
      "stateMutability": "nonpayable",
      "type": "function"
    },
    {
      "inputs": [
        {
          "internalType": "address",
          "name": "owner",
          "type": "address"
        }
      ],
      "name": "balanceOf",
      "outputs": [
        {
          "internalType": "uint256",
          "name": "",
          "type": "uint256"
        }
      ],
      "stateMutability": "view",
      "type": "function",
      "constant": true
    },
    {
      "inputs": [
        {
          "internalType": "uint256",
          "name": "tokenId",
          "type": "uint256"
        }
      ],
      "name": "getApproved",
      "outputs": [
        {
          "internalType": "address",
          "name": "",
          "type": "address"
        }
      ],
      "stateMutability": "view",
      "type": "function",
      "constant": true
    },
    {
      "inputs": [
        {
          "internalType": "address",
          "name": "owner",
          "type": "address"
        },
        {
          "internalType": "address",
          "name": "operator",
          "type": "address"
        }
      ],
      "name": "isApprovedForAll",
      "outputs": [
        {
          "internalType": "bool",
          "name": "",
          "type": "bool"
        }
      ],
      "stateMutability": "view",
      "type": "function",
      "constant": true
    },
    {
      "inputs": [],
      "name": "name",
      "outputs": [
        {
          "internalType": "string",
          "name": "",
          "type": "string"
        }
      ],
      "stateMutability": "view",
      "type": "function",
      "constant": true
    },
    {
      "inputs": [],
      "name": "owner",
      "outputs": [
        {
          "internalType": "address",
          "name": "",
          "type": "address"
        }
      ],
      "stateMutability": "view",
      "type": "function",
      "constant": true
    },
    {
      "inputs": [
        {
          "internalType": "uint256",
          "name": "tokenId",
          "type": "uint256"
        }
      ],
      "name": "ownerOf",
      "outputs": [
        {
          "internalType": "address",
          "name": "",
          "type": "address"
        }
      ],
      "stateMutability": "view",
      "type": "function",
      "constant": true
    },
    {
      "inputs": [],
      "name": "renounceOwnership",
      "outputs": [],
      "stateMutability": "nonpayable",
      "type": "function"
    },
    {
      "inputs": [
        {
          "internalType": "uint256",
          "name": "_tokenId",
          "type": "uint256"
        },
        {
          "internalType": "uint256",
          "name": "_salePrice",
          "type": "uint256"
        }
      ],
      "name": "royaltyInfo",
      "outputs": [
        {
          "internalType": "address",
          "name": "",
          "type": "address"
        },
        {
          "internalType": "uint256",
          "name": "",
          "type": "uint256"
        }
      ],
      "stateMutability": "view",
      "type": "function",
      "constant": true
    },
    {
      "inputs": [
        {
          "internalType": "address",
          "name": "from",
          "type": "address"
        },
        {
          "internalType": "address",
          "name": "to",
          "type": "address"
        },
        {
          "internalType": "uint256",
          "name": "tokenId",
          "type": "uint256"
        }
      ],
      "name": "safeTransferFrom",
      "outputs": [],
      "stateMutability": "nonpayable",
      "type": "function"
    },
    {
      "inputs": [
        {
          "internalType": "address",
          "name": "from",
          "type": "address"
        },
        {
          "internalType": "address",
          "name": "to",
          "type": "address"
        },
        {
          "internalType": "uint256",
          "name": "tokenId",
          "type": "uint256"
        },
        {
          "internalType": "bytes",
          "name": "data",
          "type": "bytes"
        }
      ],
      "name": "safeTransferFrom",
      "outputs": [],
      "stateMutability": "nonpayable",
      "type": "function"
    },
    {
      "inputs": [
        {
          "internalType": "address",
          "name": "operator",
          "type": "address"
        },
        {
          "internalType": "bool",
          "name": "approved",
          "type": "bool"
        }
      ],
      "name": "setApprovalForAll",
      "outputs": [],
      "stateMutability": "nonpayable",
      "type": "function"
    },
    {
      "inputs": [],
      "name": "symbol",
      "outputs": [
        {
          "internalType": "string",
          "name": "",
          "type": "string"
        }
      ],
      "stateMutability": "view",
      "type": "function",
      "constant": true
    },
    {
      "inputs": [
        {
          "internalType": "uint256",
          "name": "tokenId",
          "type": "uint256"
        }
      ],
      "name": "tokenURI",
      "outputs": [
        {
          "internalType": "string",
          "name": "",
          "type": "string"
        }
      ],
      "stateMutability": "view",
      "type": "function",
      "constant": true
    },
    {
      "inputs": [
        {
          "internalType": "address",
          "name": "from",
          "type": "address"
        },
        {
          "internalType": "address",
          "name": "to",
          "type": "address"
        },
        {
          "internalType": "uint256",
          "name": "tokenId",
          "type": "uint256"
        }
      ],
      "name": "transferFrom",
      "outputs": [],
      "stateMutability": "nonpayable",
      "type": "function"
    },
    {
      "inputs": [
        {
          "internalType": "address",
          "name": "newOwner",
          "type": "address"
        }
      ],
      "name": "transferOwnership",
      "outputs": [],
      "stateMutability": "nonpayable",
      "type": "function"
    },
    {
      "inputs": [
        {
          "internalType": "bytes4",
          "name": "interfaceId",
          "type": "bytes4"
        }
      ],
      "name": "supportsInterface",
      "outputs": [
        {
          "internalType": "bool",
          "name": "",
          "type": "bool"
        }
      ],
      "stateMutability": "view",
      "type": "function",
      "constant": true
    },
    {
      "inputs": [
        {
          "internalType": "uint256",
          "name": "tokenId",
          "type": "uint256"
        }
      ],
      "name": "burnNFT",
      "outputs": [],
      "stateMutability": "nonpayable",
      "type": "function"
    },
    {
      "inputs": [
        {
          "internalType": "address",
          "name": "recipient",
          "type": "address"
        },
        {
          "internalType": "string",
          "name": "tokenURI",
          "type": "string"
        }
      ],
      "name": "mintNFT",
      "outputs": [
        {
          "internalType": "uint256",
          "name": "",
          "type": "uint256"
        }
      ],
      "stateMutability": "nonpayable",
      "type": "function"
    },
    {
      "inputs": [
        {
          "internalType": "address",
          "name": "recipient",
          "type": "address"
        },
        {
          "internalType": "string",
          "name": "tokenURI",
          "type": "string"
        },
        {
          "internalType": "address",
          "name": "royaltyReceiver",
          "type": "address"
        },
        {
          "internalType": "uint96",
          "name": "feeNumerator",
          "type": "uint96"
        }
      ],
      "name": "mintNFTWithRoyalty",
      "outputs": [
        {
          "internalType": "uint256",
          "name": "",
          "type": "uint256"
        }
      ],
      "stateMutability": "nonpayable",
      "type": "function"
    }
  ],
  "bytecode": "0x60806040523480156200001157600080fd5b506040518060400160405280600e81526020017f43726561746f72526f79616c74790000000000000000000000000000000000008152506040518060400160405280600281526020017f435200000000000000000000000000000000000000000000000000000000000081525081600090816200008f9190620005d2565b508060019081620000a19190620005d2565b505050620000c4620000b8620000dd60201b60201c565b620000e560201b60201c565b620000d7336064620001ab60201b60201c565b620007d4565b600033905090565b6000600960009054906101000a900473ffffffffffffffffffffffffffffffffffffffff16905081600960006101000a81548173ffffffffffffffffffffffffffffffffffffffff021916908373ffffffffffffffffffffffffffffffffffffffff1602179055508173ffffffffffffffffffffffffffffffffffffffff168173ffffffffffffffffffffffffffffffffffffffff167f8be0079c531659141344cd1fd0a4f28419497f9722a3daafe3b4186f6b6457e060405160405180910390a35050565b620001bb6200034e60201b60201c565b6bffffffffffffffffffffffff16816bffffffffffffffffffffffff1611156200021c576040517f08c379a0000000000000000000000000000000000000000000000000000000008152600401620002139062000740565b60405180910390fd5b600073ffffffffffffffffffffffffffffffffffffffff168273ffffffffffffffffffffffffffffffffffffffff16036200028e576040517f08c379a00000000000000000000000000000000000000000000000000000000081526004016200028590620007b2565b60405180910390fd5b60405180604001604052808373ffffffffffffffffffffffffffffffffffffffff168152602001826bffffffffffffffffffffffff16815250600760008201518160000160006101000a81548173ffffffffffffffffffffffffffffffffffffffff021916908373ffffffffffffffffffffffffffffffffffffffff16021790555060208201518160000160146101000a8154816bffffffffffffffffffffffff02191690836bffffffffffffffffffffffff1602179055509050505050565b6000612710905090565b600081519050919050565b7f4e487b7100000000000000000000000000000000000000000000000000000000600052604160045260246000fd5b7f4e487b7100000000000000000000000000000000000000000000000000000000600052602260045260246000fd5b60006002820490506001821680620003da57607f821691505b602082108103620003f057620003ef62000392565b5b50919050565b60008190508160005260206000209050919050565b60006020601f8301049050919050565b600082821b905092915050565b6000600883026200045a7fffffffffffffffffffffffffffffffffffffffffffffffffffffffffffffffff826200041b565b6200046686836200041b565b95508019841693508086168417925050509392505050565b6000819050919050565b6000819050919050565b6000620004b3620004ad620004a7846200047e565b62000488565b6200047e565b9050919050565b6000819050919050565b620004cf8362000492565b620004e7620004de82620004ba565b84845462000428565b825550505050565b600090565b620004fe620004ef565b6200050b818484620004c4565b505050565b5b81811015620005335762000527600082620004f4565b60018101905062000511565b5050565b601f82111562000582576200054c81620003f6565b62000557846200040b565b8101602085101562000567578190505b6200057f62000576856200040b565b83018262000510565b50505b505050565b600082821c905092915050565b6000620005a76000198460080262000587565b1980831691505092915050565b6000620005c2838362000594565b9150826002028217905092915050565b620005dd8262000358565b67ffffffffffffffff811115620005f957620005f862000363565b5b620006058254620003c1565b6200061282828562000537565b600060209050601f8311600181146200064a576000841562000635578287015190505b620006418582620005b4565b865550620006b1565b601f1984166200065a86620003f6565b60005b8281101562000684578489015182556001820191506020850194506020810190506200065d565b86831015620006a45784890151620006a0601f89168262000594565b8355505b6001600288020188555050505b505050505050565b600082825260208201905092915050565b7f455243323938313a20726f79616c7479206665652077696c6c2065786365656460008201527f2073616c65507269636500000000000000000000000000000000000000000000602082015250565b600062000728602a83620006b9565b91506200073582620006ca565b604082019050919050565b600060208201905081810360008301526200075b8162000719565b9050919050565b7f455243323938313a20696e76616c696420726563656976657200000000000000600082015250565b60006200079a601983620006b9565b9150620007a78262000762565b602082019050919050565b60006020820190508181036000830152620007cd816200078b565b9050919050565b6137e980620007e46000396000f3fe608060405234801561001057600080fd5b506004361061012c5760003560e01c8063715018a6116100ad578063b88d4fde11610071578063b88d4fde14610342578063c87b56dd1461035e578063e985e9c51461038e578063eacabe14146103be578063f2fde38b146103ee5761012c565b8063715018a6146102b057806375eacc20146102ba5780638da5cb5b146102ea57806395d89b4114610308578063a22cb465146103265761012c565b80632890e0d7116100f45780632890e0d7146101e75780632a55205a1461020357806342842e0e146102345780636352211e1461025057806370a08231146102805761012c565b806301ffc9a71461013157806306fdde0314610161578063081812fc1461017f578063095ea7b3146101af57806323b872dd146101cb575b600080fd5b61014b600480360381019061014691906121e2565b61040a565b604051610158919061222a565b60405180910390f35b61016961041c565b60405161017691906122d5565b60405180910390f35b6101996004803603810190610194919061232d565b6104ae565b6040516101a6919061239b565b60405180910390f35b6101c960048036038101906101c491906123e2565b6104f4565b005b6101e560048036038101906101e09190612422565b61060b565b005b61020160048036038101906101fc919061232d565b61066b565b005b61021d60048036038101906102189190612475565b610677565b60405161022b9291906124c4565b60405180910390f35b61024e60048036038101906102499190612422565b610861565b005b61026a6004803603810190610265919061232d565b610881565b604051610277919061239b565b60405180910390f35b61029a600480360381019061029591906124ed565b610932565b6040516102a7919061251a565b60405180910390f35b6102b86109e9565b005b6102d460048036038101906102cf91906126ae565b6109fd565b6040516102e1919061251a565b60405180910390f35b6102f2610a2c565b6040516102ff919061239b565b60405180910390f35b610310610a56565b60405161031d91906122d5565b60405180910390f35b610340600480360381019061033b919061275d565b610ae8565b005b61035c6004803603810190610357919061283e565b610afe565b005b6103786004803603810190610373919061232d565b610b60565b60405161038591906122d5565b60405180910390f35b6103a860048036038101906103a391906128c1565b610c72565b6040516103b5919061222a565b60405180910390f35b6103d860048036038101906103d39190612901565b610d06565b6040516103e5919061251a565b60405180910390f35b610408600480360381019061040391906124ed565b610d46565b005b600061041582610dc9565b9050919050565b60606000805461042b9061298c565b80601f01602080910402602001604051908101604052809291908181526020018280546104579061298c565b80156104a45780601f10610479576101008083540402835291602001916104a4565b820191906000526020600020905b81548152906001019060200180831161048757829003601f168201915b5050505050905090565b60006104b982610e43565b6004600083815260200190815260200160002060009054906101000a900473ffffffffffffffffffffffffffffffffffffffff169050919050565b60006104ff82610881565b90508073ffffffffffffffffffffffffffffffffffffffff168373ffffffffffffffffffffffffffffffffffffffff160361056f576040517f08c379a000000000000000000000000000000000000000000000000000000000815260040161056690612a2f565b60405180910390fd5b8073ffffffffffffffffffffffffffffffffffffffff1661058e610e8e565b73ffffffffffffffffffffffffffffffffffffffff1614806105bd57506105bc816105b7610e8e565b610c72565b5b6105fc576040517f08c379a00000000000000000000000000000000000000000000000000000000081526004016105f390612ac1565b60405180910390fd5b6106068383610e96565b505050565b61061c610616610e8e565b82610f4f565b61065b576040517f08c379a000000000000000000000000000000000000000000000000000000000815260040161065290612b53565b60405180910390fd5b610666838383610fe4565b505050565b6106748161124a565b50565b6000806000600860008681526020019081526020016000206040518060400160405290816000820160009054906101000a900473ffffffffffffffffffffffffffffffffffffffff1673ffffffffffffffffffffffffffffffffffffffff1673ffffffffffffffffffffffffffffffffffffffff1681526020016000820160149054906101000a90046bffffffffffffffffffffffff166bffffffffffffffffffffffff166bffffffffffffffffffffffff16815250509050600073ffffffffffffffffffffffffffffffffffffffff16816000015173ffffffffffffffffffffffffffffffffffffffff160361080c5760076040518060400160405290816000820160009054906101000a900473ffffffffffffffffffffffffffffffffffffffff1673ffffffffffffffffffffffffffffffffffffffff1673ffffffffffffffffffffffffffffffffffffffff1681526020016000820160149054906101000a90046bffffffffffffffffffffffff166bffffffffffffffffffffffff166bffffffffffffffffffffffff168152505090505b600061081661125f565b6bffffffffffffffffffffffff1682602001516bffffffffffffffffffffffff16866108429190612ba2565b61084c9190612c2b565b90508160000151819350935050509250929050565b61087c83838360405180602001604052806000815250610afe565b505050565b6000806002600084815260200190815260200160002060009054906101000a900473ffffffffffffffffffffffffffffffffffffffff169050600073ffffffffffffffffffffffffffffffffffffffff168173ffffffffffffffffffffffffffffffffffffffff1603610929576040517f08c379a000000000000000000000000000000000000000000000000000000000815260040161092090612ca8565b60405180910390fd5b80915050919050565b60008073ffffffffffffffffffffffffffffffffffffffff168273ffffffffffffffffffffffffffffffffffffffff16036109a2576040517f08c379a000000000000000000000000000000000000000000000000000000000815260040161099990612d3a565b60405180910390fd5b600360008373ffffffffffffffffffffffffffffffffffffffff1673ffffffffffffffffffffffffffffffffffffffff168152602001908152602001600020549050919050565b6109f1611269565b6109fb60006112e7565b565b6000610a07611269565b6000610a138686610d06565b9050610a208185856113ad565b80915050949350505050565b6000600960009054906101000a900473ffffffffffffffffffffffffffffffffffffffff16905090565b606060018054610a659061298c565b80601f0160208091040260200160405190810160405280929190818152602001828054610a919061298c565b8015610ade5780601f10610ab357610100808354040283529160200191610ade565b820191906000526020600020905b815481529060010190602001808311610ac157829003601f168201915b5050505050905090565b610afa610af3610e8e565b8383611554565b5050565b610b0f610b09610e8e565b83610f4f565b610b4e576040517f08c379a0000000000000000000000000000000000000000000000000000000008152600401610b4590612b53565b60405180910390fd5b610b5a848484846116c0565b50505050565b6060610b6b82610e43565b6000600660008481526020019081526020016000208054610b8b9061298c565b80601f0160208091040260200160405190810160405280929190818152602001828054610bb79061298c565b8015610c045780601f10610bd957610100808354040283529160200191610c04565b820191906000526020600020905b815481529060010190602001808311610be757829003601f168201915b505050505090506000610c1561171c565b90506000815103610c2a578192505050610c6d565b600082511115610c5f578082604051602001610c47929190612d96565b60405160208183030381529060405292505050610c6d565b610c6884611733565b925050505b919050565b6000600560008473ffffffffffffffffffffffffffffffffffffffff1673ffffffffffffffffffffffffffffffffffffffff16815260200190815260200160002060008373ffffffffffffffffffffffffffffffffffffffff1673ffffffffffffffffffffffffffffffffffffffff16815260200190815260200160002060009054906101000a900460ff16905092915050565b6000610d10611269565b610d1a600a61179b565b6000610d26600a6117b1565b9050610d3284826117bf565b610d3c81846117dd565b8091505092915050565b610d4e611269565b600073ffffffffffffffffffffffffffffffffffffffff168173ffffffffffffffffffffffffffffffffffffffff1603610dbd576040517f08c379a0000000000000000000000000000000000000000000000000000000008152600401610db490612e2c565b60405180910390fd5b610dc6816112e7565b50565b60007f2a55205a000000000000000000000000000000000000000000000000000000007bffffffffffffffffffffffffffffffffffffffffffffffffffffffff1916827bffffffffffffffffffffffffffffffffffffffffffffffffffffffff19161480610e3c5750610e3b8261184a565b5b9050919050565b610e4c8161192c565b610e8b576040517f08c379a0000000000000000000000000000000000000000000000000000000008152600401610e8290612ca8565b60405180910390fd5b50565b600033905090565b816004600083815260200190815260200160002060006101000a81548173ffffffffffffffffffffffffffffffffffffffff021916908373ffffffffffffffffffffffffffffffffffffffff160217905550808273ffffffffffffffffffffffffffffffffffffffff16610f0983610881565b73ffffffffffffffffffffffffffffffffffffffff167f8c5be1e5ebec7d5bd14f71427d1e84f3dd0314c0f7b2291e5b200ac8c7c3b92560405160405180910390a45050565b600080610f5b83610881565b90508073ffffffffffffffffffffffffffffffffffffffff168473ffffffffffffffffffffffffffffffffffffffff161480610f9d5750610f9c8185610c72565b5b80610fdb57508373ffffffffffffffffffffffffffffffffffffffff16610fc3846104ae565b73ffffffffffffffffffffffffffffffffffffffff16145b91505092915050565b8273ffffffffffffffffffffffffffffffffffffffff1661100482610881565b73ffffffffffffffffffffffffffffffffffffffff161461105a576040517f08c379a000000000000000000000000000000000000000000000000000000000815260040161105190612ebe565b60405180910390fd5b600073ffffffffffffffffffffffffffffffffffffffff168273ffffffffffffffffffffffffffffffffffffffff16036110c9576040517f08c379a00000000000000000000000000000000000000000000000000000000081526004016110c090612f50565b60405180910390fd5b6110d4838383611998565b6110df600082610e96565b6001600360008573ffffffffffffffffffffffffffffffffffffffff1673ffffffffffffffffffffffffffffffffffffffff168152602001908152602001600020600082825461112f9190612f70565b925050819055506001600360008473ffffffffffffffffffffffffffffffffffffffff1673ffffffffffffffffffffffffffffffffffffffff16815260200190815260200160002060008282546111869190612fa4565b92505081905550816002600083815260200190815260200160002060006101000a81548173ffffffffffffffffffffffffffffffffffffffff021916908373ffffffffffffffffffffffffffffffffffffffff160217905550808273ffffffffffffffffffffffffffffffffffffffff168473ffffffffffffffffffffffffffffffffffffffff167fddf252ad1be2c89b69c2b068fc378daa952ba7f163c4a11628f55a4df523b3ef60405160405180910390a461124583838361199d565b505050565b611253816119a2565b61125c816119f5565b50565b6000612710905090565b611271610e8e565b73ffffffffffffffffffffffffffffffffffffffff1661128f610a2c565b73ffffffffffffffffffffffffffffffffffffffff16146112e5576040517f08c379a00000000000000000000000000000000000000000000000000000000081526004016112dc90613024565b60405180910390fd5b565b6000600960009054906101000a900473ffffffffffffffffffffffffffffffffffffffff16905081600960006101000a81548173ffffffffffffffffffffffffffffffffffffffff021916908373ffffffffffffffffffffffffffffffffffffffff1602179055508173ffffffffffffffffffffffffffffffffffffffff168173ffffffffffffffffffffffffffffffffffffffff167f8be0079c531659141344cd1fd0a4f28419497f9722a3daafe3b4186f6b6457e060405160405180910390a35050565b6113b561125f565b6bffffffffffffffffffffffff16816bffffffffffffffffffffffff161115611413576040517f08c379a000000000000000000000000000000000000000000000000000000000815260040161140a906130b6565b60405180910390fd5b600073ffffffffffffffffffffffffffffffffffffffff168273ffffffffffffffffffffffffffffffffffffffff1603611482576040517f08c379a000000000000000000000000000000000000000000000000000000000815260040161147990613122565b60405180910390fd5b60405180604001604052808373ffffffffffffffffffffffffffffffffffffffff168152602001826bffffffffffffffffffffffff168152506008600085815260200190815260200160002060008201518160000160006101000a81548173ffffffffffffffffffffffffffffffffffffffff021916908373ffffffffffffffffffffffffffffffffffffffff16021790555060208201518160000160146101000a8154816bffffffffffffffffffffffff02191690836bffffffffffffffffffffffff160217905550905050505050565b8173ffffffffffffffffffffffffffffffffffffffff168373ffffffffffffffffffffffffffffffffffffffff16036115c2576040517f08c379a00000000000000000000000000000000000000000000000000000000081526004016115b99061318e565b60405180910390fd5b80600560008573ffffffffffffffffffffffffffffffffffffffff1673ffffffffffffffffffffffffffffffffffffffff16815260200190815260200160002060008473ffffffffffffffffffffffffffffffffffffffff1673ffffffffffffffffffffffffffffffffffffffff16815260200190815260200160002060006101000a81548160ff0219169083151502179055508173ffffffffffffffffffffffffffffffffffffffff168373ffffffffffffffffffffffffffffffffffffffff167f17307eab39ab6107e8899845ad3d59bd9653f200f220920489ca2b5937696c31836040516116b3919061222a565b60405180910390a3505050565b6116cb848484610fe4565b6116d784848484611a54565b611716576040517f08c379a000000000000000000000000000000000000000000000000000000000815260040161170d90613220565b60405180910390fd5b50505050565b606060405180602001604052806000815250905090565b606061173e82610e43565b600061174861171c565b905060008151116117685760405180602001604052806000815250611793565b8061177284611bdb565b604051602001611783929190612d96565b6040516020818303038152906040525b915050919050565b6001816000016000828254019250508190555050565b600081600001549050919050565b6117d9828260405180602001604052806000815250611d3b565b5050565b6117e68261192c565b611825576040517f08c379a000000000000000000000000000000000000000000000000000000000815260040161181c906132b2565b60405180910390fd5b80600660008481526020019081526020016000209081611845919061347e565b505050565b60007f80ac58cd000000000000000000000000000000000000000000000000000000007bffffffffffffffffffffffffffffffffffffffffffffffffffffffff1916827bffffffffffffffffffffffffffffffffffffffffffffffffffffffff1916148061191557507f5b5e139f000000000000000000000000000000000000000000000000000000007bffffffffffffffffffffffffffffffffffffffffffffffffffffffff1916827bffffffffffffffffffffffffffffffffffffffffffffffffffffffff1916145b80611925575061192482611d96565b5b9050919050565b60008073ffffffffffffffffffffffffffffffffffffffff166002600084815260200190815260200160002060009054906101000a900473ffffffffffffffffffffffffffffffffffffffff1673ffffffffffffffffffffffffffffffffffffffff1614159050919050565b505050565b505050565b6119ab81611e00565b60006006600083815260200190815260200160002080546119cb9061298c565b9050146119f2576006600082815260200190815260200160002060006119f19190612119565b5b50565b60086000828152602001908152602001600020600080820160006101000a81549073ffffffffffffffffffffffffffffffffffffffff02191690556000820160146101000a8154906bffffffffffffffffffffffff0219169055505050565b6000611a758473ffffffffffffffffffffffffffffffffffffffff16611f1d565b15611bce578373ffffffffffffffffffffffffffffffffffffffff1663150b7a02611a9e610e8e565b8786866040518563ffffffff1660e01b8152600401611ac094939291906135a5565b6020604051808303816000875af1925050508015611afc57506040513d601f19601f82011682018060405250810190611af99190613606565b60015b611b7e573d8060008114611b2c576040519150601f19603f3d011682016040523d82523d6000602084013e611b31565b606091505b506000815103611b76576040517f08c379a0000000000000000000000000000000000000000000000000000000008152600401611b6d90613220565b60405180910390fd5b805181602001fd5b63150b7a0260e01b7bffffffffffffffffffffffffffffffffffffffffffffffffffffffff1916817bffffffffffffffffffffffffffffffffffffffffffffffffffffffff191614915050611bd3565b600190505b949350505050565b606060008203611c22576040518060400160405280600181526020017f30000000000000000000000000000000000000000000000000000000000000008152509050611d36565b600082905060005b60008214611c54578080611c3d90613633565b915050600a82611c4d9190612c2b565b9150611c2a565b60008167ffffffffffffffff811115611c7057611c6f61253f565b5b6040519080825280601f01601f191660200182016040528015611ca25781602001600182028036833780820191505090505b5090505b60008514611d2f57600182611cbb9190612f70565b9150600a85611cca919061367b565b6030611cd69190612fa4565b60f81b818381518110611cec57611ceb6136ac565b5b60200101907effffffffffffffffffffffffffffffffffffffffffffffffffffffffffffff1916908160001a905350600a85611d289190612c2b565b9450611ca6565b8093505050505b919050565b611d458383611f40565b611d526000848484611a54565b611d91576040517f08c379a0000000000000000000000000000000000000000000000000000000008152600401611d8890613220565b60405180910390fd5b505050565b60007f01ffc9a7000000000000000000000000000000000000000000000000000000007bffffffffffffffffffffffffffffffffffffffffffffffffffffffff1916827bffffffffffffffffffffffffffffffffffffffffffffffffffffffff1916149050919050565b6000611e0b82610881565b9050611e1981600084611998565b611e24600083610e96565b6001600360008373ffffffffffffffffffffffffffffffffffffffff1673ffffffffffffffffffffffffffffffffffffffff1681526020019081526020016000206000828254611e749190612f70565b925050819055506002600083815260200190815260200160002060006101000a81549073ffffffffffffffffffffffffffffffffffffffff021916905581600073ffffffffffffffffffffffffffffffffffffffff168273ffffffffffffffffffffffffffffffffffffffff167fddf252ad1be2c89b69c2b068fc378daa952ba7f163c4a11628f55a4df523b3ef60405160405180910390a4611f198160008461199d565b5050565b6000808273ffffffffffffffffffffffffffffffffffffffff163b119050919050565b600073ffffffffffffffffffffffffffffffffffffffff168273ffffffffffffffffffffffffffffffffffffffff1603611faf576040517f08c379a0000000000000000000000000000000000000000000000000000000008152600401611fa690613727565b60405180910390fd5b611fb88161192c565b15611ff8576040517f08c379a0000000000000000000000000000000000000000000000000000000008152600401611fef90613793565b60405180910390fd5b61200460008383611998565b6001600360008473ffffffffffffffffffffffffffffffffffffffff1673ffffffffffffffffffffffffffffffffffffffff16815260200190815260200160002060008282546120549190612fa4565b92505081905550816002600083815260200190815260200160002060006101000a81548173ffffffffffffffffffffffffffffffffffffffff021916908373ffffffffffffffffffffffffffffffffffffffff160217905550808273ffffffffffffffffffffffffffffffffffffffff16600073ffffffffffffffffffffffffffffffffffffffff167fddf252ad1be2c89b69c2b068fc378daa952ba7f163c4a11628f55a4df523b3ef60405160405180910390a46121156000838361199d565b5050565b5080546121259061298c565b6000825580601f106121375750612156565b601f0160209004906000526020600020908101906121559190612159565b5b50565b5b8082111561217257600081600090555060010161215a565b5090565b6000604051905090565b600080fd5b600080fd5b60007fffffffff0000000000000000000000000000000000000000000000000000000082169050919050565b6121bf8161218a565b81146121ca57600080fd5b50565b6000813590506121dc816121b6565b92915050565b6000602082840312156121f8576121f7612180565b5b6000612206848285016121cd565b91505092915050565b60008115159050919050565b6122248161220f565b82525050565b600060208201905061223f600083018461221b565b92915050565b600081519050919050565b600082825260208201905092915050565b60005b8381101561227f578082015181840152602081019050612264565b60008484015250505050565b6000601f19601f8301169050919050565b60006122a782612245565b6122b18185612250565b93506122c1818560208601612261565b6122ca8161228b565b840191505092915050565b600060208201905081810360008301526122ef818461229c565b905092915050565b6000819050919050565b61230a816122f7565b811461231557600080fd5b50565b60008135905061232781612301565b92915050565b60006020828403121561234357612342612180565b5b600061235184828501612318565b91505092915050565b600073ffffffffffffffffffffffffffffffffffffffff82169050919050565b60006123858261235a565b9050919050565b6123958161237a565b82525050565b60006020820190506123b0600083018461238c565b92915050565b6123bf8161237a565b81146123ca57600080fd5b50565b6000813590506123dc816123b6565b92915050565b600080604083850312156123f9576123f8612180565b5b6000612407858286016123cd565b925050602061241885828601612318565b9150509250929050565b60008060006060848603121561243b5761243a612180565b5b6000612449868287016123cd565b935050602061245a868287016123cd565b925050604061246b86828701612318565b9150509250925092565b6000806040838503121561248c5761248b612180565b5b600061249a85828601612318565b92505060206124ab85828601612318565b9150509250929050565b6124be816122f7565b82525050565b60006040820190506124d9600083018561238c565b6124e660208301846124b5565b9392505050565b60006020828403121561250357612502612180565b5b6000612511848285016123cd565b91505092915050565b600060208201905061252f60008301846124b5565b92915050565b600080fd5b600080fd5b7f4e487b7100000000000000000000000000000000000000000000000000000000600052604160045260246000fd5b6125778261228b565b810181811067ffffffffffffffff821117156125965761259561253f565b5b80604052505050565b60006125a9612176565b90506125b5828261256e565b919050565b600067ffffffffffffffff8211156125d5576125d461253f565b5b6125de8261228b565b9050602081019050919050565b82818337600083830152505050565b600061260d612608846125ba565b61259f565b9050828152602081018484840111156126295761262861253a565b5b6126348482856125eb565b509392505050565b600082601f83011261265157612650612535565b5b81356126618482602086016125fa565b91505092915050565b60006bffffffffffffffffffffffff82169050919050565b61268b8161266a565b811461269657600080fd5b50565b6000813590506126a881612682565b92915050565b600080600080608085870312156126c8576126c7612180565b5b60006126d6878288016123cd565b945050602085013567ffffffffffffffff8111156126f7576126f6612185565b5b6127038782880161263c565b9350506040612714878288016123cd565b925050606061272587828801612699565b91505092959194509250565b61273a8161220f565b811461274557600080fd5b50565b60008135905061275781612731565b92915050565b6000806040838503121561277457612773612180565b5b6000612782858286016123cd565b925050602061279385828601612748565b9150509250929050565b600067ffffffffffffffff8211156127b8576127b761253f565b5b6127c18261228b565b9050602081019050919050565b60006127e16127dc8461279d565b61259f565b9050828152602081018484840111156127fd576127fc61253a565b5b6128088482856125eb565b509392505050565b600082601f83011261282557612824612535565b5b81356128358482602086016127ce565b91505092915050565b6000806000806080858703121561285857612857612180565b5b6000612866878288016123cd565b9450506020612877878288016123cd565b935050604061288887828801612318565b925050606085013567ffffffffffffffff8111156128a9576128a8612185565b5b6128b587828801612810565b91505092959194509250565b600080604083850312156128d8576128d7612180565b5b60006128e6858286016123cd565b92505060206128f7858286016123cd565b9150509250929050565b6000806040838503121561291857612917612180565b5b6000612926858286016123cd565b925050602083013567ffffffffffffffff81111561294757612946612185565b5b6129538582860161263c565b9150509250929050565b7f4e487b7100000000000000000000000000000000000000000000000000000000600052602260045260246000fd5b600060028204905060018216806129a457607f821691505b6020821081036129b7576129b661295d565b5b50919050565b7f4552433732313a20617070726f76616c20746f2063757272656e74206f776e6560008201527f7200000000000000000000000000000000000000000000000000000000000000602082015250565b6000612a19602183612250565b9150612a24826129bd565b604082019050919050565b60006020820190508181036000830152612a4881612a0c565b9050919050565b7f4552433732313a20617070726f76652063616c6c6572206973206e6f7420746f60008201527f6b656e206f776e6572206e6f7220617070726f76656420666f7220616c6c0000602082015250565b6000612aab603e83612250565b9150612ab682612a4f565b604082019050919050565b60006020820190508181036000830152612ada81612a9e565b9050919050565b7f4552433732313a2063616c6c6572206973206e6f7420746f6b656e206f776e6560008201527f72206e6f7220617070726f766564000000000000000000000000000000000000602082015250565b6000612b3d602e83612250565b9150612b4882612ae1565b604082019050919050565b60006020820190508181036000830152612b6c81612b30565b9050919050565b7f4e487b7100000000000000000000000000000000000000000000000000000000600052601160045260246000fd5b6000612bad826122f7565b9150612bb8836122f7565b9250817fffffffffffffffffffffffffffffffffffffffffffffffffffffffffffffffff0483118215151615612bf157612bf0612b73565b5b828202905092915050565b7f4e487b7100000000000000000000000000000000000000000000000000000000600052601260045260246000fd5b6000612c36826122f7565b9150612c41836122f7565b925082612c5157612c50612bfc565b5b828204905092915050565b7f4552433732313a20696e76616c696420746f6b656e2049440000000000000000600082015250565b6000612c92601883612250565b9150612c9d82612c5c565b602082019050919050565b60006020820190508181036000830152612cc181612c85565b9050919050565b7f4552433732313a2061646472657373207a65726f206973206e6f74206120766160008201527f6c6964206f776e65720000000000000000000000000000000000000000000000602082015250565b6000612d24602983612250565b9150612d2f82612cc8565b604082019050919050565b60006020820190508181036000830152612d5381612d17565b9050919050565b600081905092915050565b6000612d7082612245565b612d7a8185612d5a565b9350612d8a818560208601612261565b80840191505092915050565b6000612da28285612d65565b9150612dae8284612d65565b91508190509392505050565b7f4f776e61626c653a206e6577206f776e657220697320746865207a65726f206160008201527f6464726573730000000000000000000000000000000000000000000000000000602082015250565b6000612e16602683612250565b9150612e2182612dba565b604082019050919050565b60006020820190508181036000830152612e4581612e09565b9050919050565b7f4552433732313a207472616e736665722066726f6d20696e636f72726563742060008201527f6f776e6572000000000000000000000000000000000000000000000000000000602082015250565b6000612ea8602583612250565b9150612eb382612e4c565b604082019050919050565b60006020820190508181036000830152612ed781612e9b565b9050919050565b7f4552433732313a207472616e7366657220746f20746865207a65726f2061646460008201527f7265737300000000000000000000000000000000000000000000000000000000602082015250565b6000612f3a602483612250565b9150612f4582612ede565b604082019050919050565b60006020820190508181036000830152612f6981612f2d565b9050919050565b6000612f7b826122f7565b9150612f86836122f7565b9250828203905081811115612f9e57612f9d612b73565b5b92915050565b6000612faf826122f7565b9150612fba836122f7565b9250828201905080821115612fd257612fd1612b73565b5b92915050565b7f4f776e61626c653a2063616c6c6572206973206e6f7420746865206f776e6572600082015250565b600061300e602083612250565b915061301982612fd8565b602082019050919050565b6000602082019050818103600083015261303d81613001565b9050919050565b7f455243323938313a20726f79616c7479206665652077696c6c2065786365656460008201527f2073616c65507269636500000000000000000000000000000000000000000000602082015250565b60006130a0602a83612250565b91506130ab82613044565b604082019050919050565b600060208201905081810360008301526130cf81613093565b9050919050565b7f455243323938313a20496e76616c696420706172616d65746572730000000000600082015250565b600061310c601b83612250565b9150613117826130d6565b602082019050919050565b6000602082019050818103600083015261313b816130ff565b9050919050565b7f4552433732313a20617070726f766520746f2063616c6c657200000000000000600082015250565b6000613178601983612250565b915061318382613142565b602082019050919050565b600060208201905081810360008301526131a78161316b565b9050919050565b7f4552433732313a207472616e7366657220746f206e6f6e20455243373231526560008201527f63656976657220696d706c656d656e7465720000000000000000000000000000602082015250565b600061320a603283612250565b9150613215826131ae565b604082019050919050565b60006020820190508181036000830152613239816131fd565b9050919050565b7f45524337323155524953746f726167653a2055524920736574206f66206e6f6e60008201527f6578697374656e7420746f6b656e000000000000000000000000000000000000602082015250565b600061329c602e83612250565b91506132a782613240565b604082019050919050565b600060208201905081810360008301526132cb8161328f565b9050919050565b60008190508160005260206000209050919050565b60006020601f8301049050919050565b600082821b905092915050565b6000600883026133347fffffffffffffffffffffffffffffffffffffffffffffffffffffffffffffffff826132f7565b61333e86836132f7565b95508019841693508086168417925050509392505050565b6000819050919050565b600061337b613376613371846122f7565b613356565b6122f7565b9050919050565b6000819050919050565b61339583613360565b6133a96133a182613382565b848454613304565b825550505050565b600090565b6133be6133b1565b6133c981848461338c565b505050565b5b818110156133ed576133e26000826133b6565b6001810190506133cf565b5050565b601f82111561343257613403816132d2565b61340c846132e7565b8101602085101561341b578190505b61342f613427856132e7565b8301826133ce565b50505b505050565b600082821c905092915050565b600061345560001984600802613437565b1980831691505092915050565b600061346e8383613444565b9150826002028217905092915050565b61348782612245565b67ffffffffffffffff8111156134a05761349f61253f565b5b6134aa825461298c565b6134b58282856133f1565b600060209050601f8311600181146134e857600084156134d6578287015190505b6134e08582613462565b865550613548565b601f1984166134f6866132d2565b60005b8281101561351e578489015182556001820191506020850194506020810190506134f9565b8683101561353b5784890151613537601f891682613444565b8355505b6001600288020188555050505b505050505050565b600081519050919050565b600082825260208201905092915050565b600061357782613550565b613581818561355b565b9350613591818560208601612261565b61359a8161228b565b840191505092915050565b60006080820190506135ba600083018761238c565b6135c7602083018661238c565b6135d460408301856124b5565b81810360608301526135e6818461356c565b905095945050505050565b600081519050613600816121b6565b92915050565b60006020828403121561361c5761361b612180565b5b600061362a848285016135f1565b91505092915050565b600061363e826122f7565b91507fffffffffffffffffffffffffffffffffffffffffffffffffffffffffffffffff82036136705761366f612b73565b5b600182019050919050565b6000613686826122f7565b9150613691836122f7565b9250826136a1576136a0612bfc565b5b828206905092915050565b7f4e487b7100000000000000000000000000000000000000000000000000000000600052603260045260246000fd5b7f4552433732313a206d696e7420746f20746865207a65726f2061646472657373600082015250565b6000613711602083612250565b915061371c826136db565b602082019050919050565b6000602082019050818103600083015261374081613704565b9050919050565b7f4552433732313a20746f6b656e20616c7265616479206d696e74656400000000600082015250565b600061377d601c83612250565b915061378882613747565b602082019050919050565b600060208201905081810360008301526137ac81613770565b905091905056fea2646970667358221220cab40e4b41a4fb191fe94fb226df1214ff8439d915c6f4871f5040d4f5cc55d364736f6c63430008100033",
  "immutableReferences": {},
  "source": "// SPDX-License-Identifier: MIT\npragma solidity >=0.4.22 <0.9.0;\n\nimport \"@openzeppelin/contracts/token/common/ERC2981.sol\";\nimport \"@openzeppelin/contracts/token/ERC721/extensions/ERC721URIStorage.sol\";\nimport \"@openzeppelin/contracts/access/Ownable.sol\";\nimport \"@openzeppelin/contracts/utils/Counters.sol\";\n\ncontract CreatorRoyalty is ERC721URIStorage, ERC2981, Ownable {\n  using Counters for Counters.Counter;\n  Counters.Counter private _tokenIds;\n\n  constructor() ERC721(\"CreatorRoyalty\", \"CR\") {\n    _setDefaultRoyalty(msg.sender, 100);\n  }\n\n  function supportsInterface(bytes4 interfaceId)\n  public view virtual override(ERC721, ERC2981)\n  returns (bool) {\n    return super.supportsInterface(interfaceId);\n}\n\nfunction _burn(uint256 tokenId)\n  internal virtual override {\n    super._burn(tokenId);\n    _resetTokenRoyalty(tokenId);\n  }\n\n  function burnNFT(uint256 tokenId)\n  public {\n    _burn(tokenId);\n}\n\nfunction mintNFT(address recipient, string memory tokenURI)\n  public onlyOwner\n  returns (uint256) {\n    _tokenIds.increment();\n\n    uint256 newItemId = _tokenIds.current();\n    _safeMint(recipient, newItemId);\n    _setTokenURI(newItemId, tokenURI);\n\n    return newItemId;\n}\n\nfunction mintNFTWithRoyalty(address recipient, string memory tokenURI, address royaltyReceiver, uint96 feeNumerator)\n  public onlyOwner\n  returns (uint256) {\n    uint256 tokenId = mintNFT(recipient, tokenURI);\n    _setTokenRoyalty(tokenId, royaltyReceiver, feeNumerator);\n\n    return tokenId;\n}\n\n\n}\n",
  "sourcePath": "/Users/devpath/Desktop/projects/nft-royalty/contracts/CreatorRoyalty.sol",
  "compiler": {
    "name": "solc",
    "version": "0.8.16+commit.07a7930e.Emscripten.clang"
  },
  "schemaVersion": "3.4.9",
  "updatedAt": "2022-08-20T02:54:49.637Z",
  "networkType": "ethereum",
  "devdoc": {
    "kind": "dev",
    "methods": {
      "approve(address,uint256)": {
        "details": "See {IERC721-approve}."
      },
      "balanceOf(address)": {
        "details": "See {IERC721-balanceOf}."
      },
      "getApproved(uint256)": {
        "details": "See {IERC721-getApproved}."
      },
      "isApprovedForAll(address,address)": {
        "details": "See {IERC721-isApprovedForAll}."
      },
      "name()": {
        "details": "See {IERC721Metadata-name}."
      },
      "owner()": {
        "details": "Returns the address of the current owner."
      },
      "ownerOf(uint256)": {
        "details": "See {IERC721-ownerOf}."
      },
      "renounceOwnership()": {
        "details": "Leaves the contract without owner. It will not be possible to call `onlyOwner` functions anymore. Can only be called by the current owner. NOTE: Renouncing ownership will leave the contract without an owner, thereby removing any functionality that is only available to the owner."
      },
      "royaltyInfo(uint256,uint256)": {
        "details": "Returns how much royalty is owed and to whom, based on a sale price that may be denominated in any unit of exchange. The royalty amount is denominated and should be paid in that same unit of exchange."
      },
      "safeTransferFrom(address,address,uint256)": {
        "details": "See {IERC721-safeTransferFrom}."
      },
      "safeTransferFrom(address,address,uint256,bytes)": {
        "details": "See {IERC721-safeTransferFrom}."
      },
      "setApprovalForAll(address,bool)": {
        "details": "See {IERC721-setApprovalForAll}."
      },
      "symbol()": {
        "details": "See {IERC721Metadata-symbol}."
      },
      "tokenURI(uint256)": {
        "details": "See {IERC721Metadata-tokenURI}."
      },
      "transferFrom(address,address,uint256)": {
        "details": "See {IERC721-transferFrom}."
      },
      "transferOwnership(address)": {
        "details": "Transfers ownership of the contract to a new account (`newOwner`). Can only be called by the current owner."
      }
    },
    "version": 1
  },
  "userdoc": {
    "kind": "user",
    "methods": {},
    "version": 1
  }
}